{
  "contractName": "EnergyTokenSale",
  "abi": [
    {
      "constant": true,
      "inputs": [],
      "name": "tokensSold",
      "outputs": [
        {
          "name": "",
          "type": "uint256"
        }
      ],
      "payable": false,
      "stateMutability": "view",
      "type": "function"
    },
    {
      "constant": true,
      "inputs": [],
      "name": "tokenContract",
      "outputs": [
        {
          "name": "",
          "type": "address"
        }
      ],
      "payable": false,
      "stateMutability": "view",
      "type": "function"
    },
    {
      "constant": true,
      "inputs": [],
      "name": "tokenPrice",
      "outputs": [
        {
          "name": "",
          "type": "uint256"
        }
      ],
      "payable": false,
      "stateMutability": "view",
      "type": "function"
    },
    {
      "inputs": [
        {
          "name": "_tokenContract",
          "type": "address"
        },
        {
          "name": "_tokenPrice",
          "type": "uint256"
        }
      ],
      "payable": false,
      "stateMutability": "nonpayable",
      "type": "constructor"
    },
    {
      "anonymous": false,
      "inputs": [
        {
          "indexed": false,
          "name": "_buyer",
          "type": "address"
        },
        {
          "indexed": false,
          "name": "_amount",
          "type": "uint256"
        }
      ],
      "name": "Sell",
      "type": "event"
    },
    {
      "constant": false,
      "inputs": [
        {
          "name": "_numberOfTokens",
          "type": "uint256"
        }
      ],
      "name": "buyTokens",
      "outputs": [],
      "payable": true,
      "stateMutability": "payable",
      "type": "function"
    }
  ],
  "bytecode": "0x608060405234801561001057600080fd5b506040516040806106708339810180604052604081101561003057600080fd5b810190808051906020019092919080519060200190929190505050816000806101000a81548173ffffffffffffffffffffffffffffffffffffffff021916908373ffffffffffffffffffffffffffffffffffffffff1602179055508060018190555050506105cd806100a36000396000f3fe60806040526004361061003f5760003560e01c80633610724e14610044578063518ab2a81461007257806355a373d61461009d5780637ff9b596146100f4575b600080fd5b6100706004803603602081101561005a57600080fd5b810190808035906020019092919050505061011f565b005b34801561007e57600080fd5b506100876104c9565b6040518082815260200191505060405180910390f35b3480156100a957600080fd5b506100b26104cf565b604051808273ffffffffffffffffffffffffffffffffffffffff1673ffffffffffffffffffffffffffffffffffffffff16815260200191505060405180910390f35b34801561010057600080fd5b506101096104f4565b6040518082815260200191505060405180910390f35b610134600154826104fa90919063ffffffff16565b34146101a8576040517f08c379a00000000000000000000000000000000000000000000000000000000081526004018080602001828103825260138152602001807f4e6f7420737566696369656e742065746865720000000000000000000000000081525060200191505060405180910390fd5b806000809054906101000a900473ffffffffffffffffffffffffffffffffffffffff1673ffffffffffffffffffffffffffffffffffffffff166370a08231306040518263ffffffff1660e01b8152600401808273ffffffffffffffffffffffffffffffffffffffff1673ffffffffffffffffffffffffffffffffffffffff16815260200191505060206040518083038186803b15801561024757600080fd5b505afa15801561025b573d6000803e3d6000fd5b505050506040513d602081101561027157600080fd5b810190808051906020019092919050505010156102f6576040517f08c379a00000000000000000000000000000000000000000000000000000000081526004018080602001828103825260148152602001807f4e6f7420737566696369656e7420746f6b656e7300000000000000000000000081525060200191505060405180910390fd5b6000809054906101000a900473ffffffffffffffffffffffffffffffffffffffff1673ffffffffffffffffffffffffffffffffffffffff1663a9059cbb33836040518363ffffffff1660e01b8152600401808373ffffffffffffffffffffffffffffffffffffffff1673ffffffffffffffffffffffffffffffffffffffff16815260200182815260200192505050602060405180830381600087803b15801561039e57600080fd5b505af11580156103b2573d6000803e3d6000fd5b505050506040513d60208110156103c857600080fd5b810190808051906020019092919050505061044b576040517f08c379a00000000000000000000000000000000000000000000000000000000081526004018080602001828103825260148152602001807f4572726f7220696e207472616e73616374696f6e00000000000000000000000081525060200191505060405180910390fd5b806002600082825401925050819055507f5e5e995ce3133561afceaa51a9a154d5db228cd7525d34df5185582c18d3df093382604051808373ffffffffffffffffffffffffffffffffffffffff1673ffffffffffffffffffffffffffffffffffffffff1681526020018281526020019250505060405180910390a150565b60025481565b6000809054906101000a900473ffffffffffffffffffffffffffffffffffffffff1681565b60015481565b60008083141561050d576000905061057a565b600082840290508284828161051e57fe5b0414610575576040517f08c379a00000000000000000000000000000000000000000000000000000000081526004018080602001828103825260218152602001806105816021913960400191505060405180910390fd5b809150505b9291505056fe536166654d6174683a206d756c7469706c69636174696f6e206f766572666c6f77a165627a7a72305820558259e35b9fd139e6256fed5da8568b7a2967798921094f24f407cdec99a7930029",
  "source": "pragma solidity ^0.5.0;\n\nimport './EnergyToken.sol';\nimport '../../node_modules/openzeppelin-solidity/contracts/math/SafeMath.sol';\n\ncontract EnergyTokenSale {\n  using SafeMath for uint256;\n  EnergyToken public tokenContract;\n  uint256 public tokenPrice;\n  uint256 public tokensSold;\n\n  event Sell(address _buyer, uint256 _amount);\n\n  constructor(EnergyToken _tokenContract, uint256 _tokenPrice) public {\n    tokenContract = _tokenContract;\n    tokenPrice = _tokenPrice;\n  }\n\n  function buyTokens(uint256 _numberOfTokens) public payable {\n    require(msg.value == _numberOfTokens.mul(tokenPrice), \"Not suficient ether\");\n    require(tokenContract.balanceOf(address(this)) >= _numberOfTokens, \"Not suficient tokens\");\n    require(tokenContract.transfer(msg.sender, _numberOfTokens), \"Error in transaction\");\n\n    tokensSold += _numberOfTokens;\n\n    emit Sell(msg.sender, _numberOfTokens);\n  }\n}\n",
  "sourcePath": "/home/ariel/Documentos/blockchain/energytoken/src/contracts/EnergyTokenSale.sol",
  "compiler": {
    "name": "solc",
    "version": "0.5.8+commit.23d335f2.Emscripten.clang"
  },
  "schemaVersion": "3.0.11",
  "updatedAt": "2019-08-31T20:30:41.468Z",
  "devdoc": {
    "methods": {}
  },
  "userdoc": {
    "methods": {}
  }
}